:1000000009C021C02EC01FC01EC01DC01CC01BC007
:100010001AC019C011241FBECFE9CDBF20E0A0E651
:10002000B0E001C01D92A236B207E1F710E0A0E6F1
:10003000B0E0E8ECF2E002C005900D92A036B10706
:10004000D9F7D7D03FC1DCCFBC98399A3D9A86B159
:10005000836886B90895369A3699FECF85B190E0C7
:1000600008951F920F920FB60F9211242F938F9322
:100070009F93B3990EC0809161008F5F8093610060
:100080002FEF8BED95E0215080409040E1F700C0CC
:1000900000009F918F912F910F900FBE0F901F9096
:1000A000189520E030E0281739073CF443E04A95E2
:1000B000F1F700002F5F3F4FF6CF089520E030E0CA
:1000C000281739074CF4EFE5F9E03197F1F700C054
:1000D00000002F5F3F4FF4CF08950F931F93CF93EE
:1000E000DF938230910578F428B381E090E001C07D
:1000F000880F6A95EAF78095822388BBDF91CF91BC
:100100001F910F9108958C0188B3C1E0D0E001C028
:10011000CC0F6A95EAF78C2B88BBC801C2DF88B385
:10012000C095C823C8BB80E091E0801B910BDF9194
:10013000CF911F910F91B5CF0F931F93CF93DF9363
:1001400066E170E098D0EB0101E010E060E070E063
:10015000C801C3DFCE01B2DF0F5F1F4F0F3F110594
:10016000A9F70EEF10E060E070E0C801B6DFCE0145
:10017000A5DF01501109B9F701E010E061E070E07E
:10018000C801ABDFCE019ADF0F5F1F4F0F3F110594
:10019000A9F70EEF10E061E070E0C8019EDFCE012C
:1001A0008DDF01501109B9F701E010E062E070E065
:1001B000C80193DFCE0182DF0F5F1F4F0F3F110594
:1001C000A9F70EEF10E062E070E0C80186DFCE0113
:1001D00075DF01501109B9F7DF91CF911F910F9190
:1001E0000895BB98F894AB9A8BB780628BBF7894D4
:1001F00008952ADFB89AB99ABA9AF3DF2CDF809370
:10020000600080916100823021F148F4882381F000
:10021000813059F58091600061E070E01EC084304B
:10022000F9F058F0853009F5C09AC19AC29AE6CF24
:100230008091600060E070E010C08091600060E03C
:1002400070E090E04ADF8091600061E070E090E053
:1002500044DF8091600062E070E090E03EDFCECF4E
:100260008091600090E068DFC9CF10926100C09873
:10027000C198C298C3CF97FB072E16F4009406D0FE
:1002800077FD08D00BD007FC05D03EF49095819502
:100290009F4F0895709561957F4F0895AA1BBB1BD2
:1002A00051E107C0AA1FBB1FA617B70710F0A61B76
:1002B000B70B881F991F5A95A9F780959095BC0197
:0802C000CD010895F894FFCF71
:00000001FF
