:1000000012C02CC02BC0C6C629C028C027C026C01D
:1000100025C024C023C022C021C020C01FC01EC0D4
:100020001DC01CC01BC011241FBECFE5D4E0DEBF25
:10003000CDBF10E0A0E6B0E0E2E7FBE102C0059032
:100040000D92A236B107D9F720E0A2E6B0E001C0D8
:100050001D92A839B207E1F731D689CDD1CF1F93D0
:10006000CF93DF93182FC1E0D0E0C61BD109CC0F8E
:10007000DD1F8C2F8C6E2DD5812F4DD549D58C2F22
:100080008D6E27D56BD5C82F43D58C2FDF91CF919F
:100090001F9108951F93CF93DF93182FC1E0D0E0F5
:1000A000C61BD109CC0FDD1F8C2F8C6E12D5812F72
:1000B00032D52ED58C2F8D6E0CD53ED5C82FD0E0E5
:1000C000DC2FCC274BD5C82B23D5CE01DF91CF9188
:1000D0001F910895CF92DF92EF92FF92CF93DF931B
:1000E000F82EC1E0D0E0C61BD109CC0FDD1F8C2F4C
:1000F0008C6EEFD48F2D0FD50BD58C2F8D6EE9D450
:100100001BD5C82ED12CE12CF12CFE2CED2CDC2C97
:10011000CC2412D5C82AFE2CED2CDC2CCC241ED5E8
:10012000C82AF6D4C701B601DF91CF91FF90EF90B6
:10013000DF90CF9008952F923F924F925F926F92EF
:100140007F928F929F92AF92BF92CF92DF92EF9267
:10015000FF920F931F93CF93C82F682F8AEFBADFB8
:100160006B017C01C114D10480E8E806F10409F4B4
:1001700087C091E2C99FD0011124A659BF4FED91CC
:10018000FC91119712960D911C9113974D2C5E2C9A
:100190006F2C77242D913C9111976D917C91119743
:1001A00014962D903C90159753014201821A930AA0
:1001B000A108B108A501940153014201861A970ACA
:1001C000A108B108C501B401F2D89B01AC019CE0C3
:1001D00056954795379527959A95D1F7D10100D92E
:1001E0004B015C012EE0B694A794979487942A95CE
:1001F000D1F7B701A60137E07695679557954795F2
:100200003A95D1F7CF01A0E0B0E0880F991FAA1F5F
:10021000BB1F9A01AB01281B390B4A0B5B0BD801A2
:10022000DFD8DC01CB01FBE0B695A79597958795C4
:10023000FA95D1F7880E991EAA1EBB1E84E0C89FAE
:10024000F0011124E557FF4F80829182A282B38290
:100250002081318142815381A5E0B0E0B7D8DC0133
:10026000CB0180589F4FAF4FBF4F692F7A2F8B2FF5
:10027000992735DB20E030E048EC52E498DA04C0FE
:1002800060E070E080EC9FE7CF911F910F91FF90AD
:10029000EF90DF90CF90BF90AF909F908F907F9026
:1002A0006F905F904F903F902F9008954F925F9284
:1002B0006F927F928F929F92AF92BF92CF92DF9276
:1002C000EF92FF921F93CF93DF93C82F682F80ED9B
:1002D000C6DE803629F060E070E080EC9FE7E3C086
:1002E0008C2F29DF6C2F8DEFD5DEA0E0B0E08115DB
:1002F00020E89207A105B10571F36C2F70E0FB01B6
:10030000EE0FFF1FEE0FFF1FE557FF4F808091801C
:10031000A280B3803CE2931A31E0A30AB10821E243
:10032000269FF001279FF00D1124E659FF4F448DC1
:10033000558D268D378D6EE0880F991FAA1FBB1F24
:100340006A95D1F7052E000C660B770BC4E1440FBC
:10035000551F661F771FCA95D1F76C017D01C41A1E
:10036000D50AE60AF70AD901A501940139D8C61AB7
:10037000D70AE80AF90A40E4D40EE11CF11CDFE0D8
:10038000F594E794D794C794DA95D1F710A1A38D8B
:10039000C18DD28DB0E0A501940118D82B013C018C
:1003A0008BE075946794579447948A95D1F750E8F9
:1003B000550E611C711CA12F110FBB0BA5019401DF
:1003C0000FD82AE095958795779567952A95D1F767
:1003D000A3019201ECD7DC01CB013AE0B595A795DA
:1003E000979587953A95D1F79C01AD01405E5F4F97
:1003F000DE01F6D7DC01CB01905EAF4FBF4FBC01F1
:10040000CD014EE095958795779567954A95D1F7FB
:10041000A7019601CCD76B017C015FE0959587958C
:10042000779567955A95D1F7E08D9B01AC01BFD7C1
:100430009B01AC0167E055954795379527956A95DF
:10044000D1F7AE2FB0E0C2D7DC01CB0174E0B59597
:10045000A795979587957A95D1F7A7019601281BBF
:10046000390B4A0B5B0BDA01C90157FF03C080E06F
:1004700090E0DC0181309105A10539E1B30724F05A
:1004800080E090E0A0E0B9E1BC01CD012CE09595C1
:100490008795779567952A95D1F723DA20E030E0A4
:1004A00040E85AE3F8DADF91CF911F91FF90EF9087
:1004B000DF90CF90BF90AF909F908F907F906F9084
:1004C0005F904F9008952F923F924F925F926F925C
:1004D0007F928F929F92AF92BF92CF92DF92EF92D4
:1004E000FF920F931F93CF93DF93CDB7DEB7A797FC
:1004F0000FB6F894DEBF0FBECDBF89831CDE6981C5
:1005000087EFE8DD6D8B7E8B8F8B988F6115710582
:100510008048910509F4C2C13981232F30E03A8324
:100520002983F901EE0FFF1FEE0FFF1FE557FF4F65
:1005300080809180A280B3809401A50160E070E08A
:1005400080E090E0345F41405109610971098109FF
:10055000910929873D872A013B014C0159016A0114
:100560007B018C0143D7322E232E4E8F5F8F68A3E1
:1005700079A38AA39BA321E249815A81249FC001C8
:10058000259F900D1124DC01A659BF4FBFA3AEA338
:100590005096ED91FC915197FC87EB871E96AD909C
:1005A000BC901F97BA8AA98A1C96CD90DC901D97A3
:1005B000DC8ACB8A1A96ED90FC901B97FA82E9822E
:1005C00018964D915C911997952F990F990BA984C5
:1005D000BD84620173019A01492F592F692F792F28
:1005E000892F04D70CE011D8288B398F4A8F5B8F65
:1005F0006C8F7D8F8CA39DA3AEA1BFA116960D908D
:10060000BC91A02DBF87AE879A81990F990BA32C1F
:10061000B22CCE8CDF8CE8A0F9A00AA11BA1298105
:100620003A81492F592F692F792F892FDFD608E07A
:1006300005D8A888B98CCA8CDB8CEC8CFD8C0CA1FD
:100640001DA11AD870588F4F9F4FCE84DF8456015A
:10065000C12CD12CE12CF12C8701A982BA82CB824A
:10066000DC82ED82FE820F831887C12CD12CE12C15
:10067000F12C00E010E0BAD601E2E0D729833E87F2
:10068000488B598F6A8F7B8F8C8F9D8FA0E012D8FB
:1006900009F409C19C85990F990BA32CB22CCE8C1F
:1006A000DF8CE8A0F9A00AA11BA12B853C85492F6E
:1006B000592F692F792F892F99D619014B875E8F72
:1006C0006F8F78A389A39AA39A89990F990BA9840C
:1006D000BD8462017301840129893A89492F592F08
:1006E000692F792F892F82D601E18FD75101CB84D1
:1006F000DE8CEF8CF8A009A11AA1BED759016A01BE
:100700007B018987192F4D895E896F89788D84E0F7
:1007100075956795579547958A95D1F780E090E054
:10072000A0E1B0E0841B950BA60BB70B1C012D01BB
:100730009C01A20160E070E080E090E00FE165D7ED
:10074000722E832E942E652EB62FA72FF82FE92F09
:100750009C89990F990B2B893C89492F592F692F17
:10076000792F892F03E251D7098586D759016A016C
:100770007B018C01272D382D492D562D6B2F7A2F7B
:100780008F2F9E2F8ED7E5E3AE2EFCE0BF2EC12C1F
:10079000D12CE12CF12C00E010E028D6A980BE84F9
:1007A000C888D98CEA8CFB8C0C8D1D8D72D62D8758
:1007B0003B87498B5B8B69837D8B8E87988BAEA142
:1007C000BFA15696ED91FC9157970DE037D7922E29
:1007D000832E742E652E562E472E382E292E549693
:1007E000AD90BC905597BA86A9869F2F990F990B0B
:1007F000A92CB82CC72CD62CE52CF42C032D122DAB
:100800009F01492F592F692F792F892FEFD5EED5C9
:1008100009E114D7AD84BB84C988DB88E980FD88F1
:100820000E85188929D719012A013B014C019A85A7
:10083000990F990B29853A85492F592F692F792FBF
:10084000892FD4D503E1FAD659016A017B018C01C5
:100850009101A201B301C4010FD708E0EFD65901FD
:100860006A017B01E82F192FAEA1BFA152964D91CD
:100870005C915397952F990F990B9A01492F592FF6
:10088000692F792F892F04E0C0D60E2FF5D623D8F3
:1008900020E030E040E85BE3FED808C060E070E0B4
:1008A00080EC9FE703C060E070E0CB01A7960FB635
:1008B000F894DEBF0FBECDBFDF91CF911F910F9196
:1008C000FF90EF90DF90CF90BF90AF909F908F9070
:1008D0007F906F905F904F903F902F900895DADB5C
:1008E0009827892798270895EF92FF920F931F93D7
:1008F000CF93DF93C82FE82EF12C682F88E8EFDF25
:1009000021E22E9D80012F9D100D112406591F4FAD
:10091000F801918380836C2F8AE8E1DFF8019383EB
:1009200082836C2F8CE8DBDFF801958384836C2F46
:100930008EE8D5DFF801978386836C2F80E9CFDFBF
:10094000F801918780876C2F82E9C9DFF8019387CE
:1009500082876C2F84E9C3DFF801958784876C2F29
:1009600086E9BDDFF801978786876C2F88E9B7DFB6
:10097000F801918B808B6C2F8AE9B1DFF801938BA2
:10098000828B6C2F8CE9ABDFF801958B848B6C2FFD
:100990008EE9A5DFF801978B868B6C2F80ED5FDBEE
:1009A0008036B1F56C2F81EA5ADBF801808F6C2F0D
:1009B00081EE95DFF801928F818F6C2F83EE4FDBF4
:1009C000F801838F6C2F84EE4ADBD82F6C2F85EED5
:1009D00046DBF0E1DF9F900111248F70282BF80196
:1009E000358F248F6C2F86EE3ADBD82F6C2F85EE57
:1009F00036DBF0E1DF9F9001112482958F70282B68
:100A0000F801378F268F6C2F87EE29DBF80180A342
:100A1000DF91CF911F910F91FF90EF900895CF93A9
:100A2000DF93D82F682F80ED1ADB883501F18036EF
:100A300009F04BC081E090E08D1B9109880F991F50
:100A4000C82FCC6E8C2F45D080EE65D086EB63D05E
:100A50005FD08FE097E20197F1F700C000008C2F84
:100A600038D082EF58D085E056D0C0E018C081E081
:100A700090E08D1B9109880F991FC82FCC6E8C2F89
:100A800028D080EE48D086EB46D042D08FE097E267
:100A90000197F1F700C000008C2F1BD0C1E085EF5B
:100AA0003AD08CE638D084EF36D087EB34D030D0D3
:100AB0009FE728E381E0915020408040E1F700C0AB
:100AC00000008D2F11DF8C2F01C08FEFDF91CF91B0
:100AD000089594EA96BF20E530E006B607FC07C00B
:100AE00021503109D1F780918F0081600DC083B909
:100AF00084E886BF80E590E006B607FC08C0019751
:100B0000D9F780918F00826080938F0008950895B7
:100B100084E986BF089583B984E886BF80E590E0C4
:100B200006B607FC08C00197D9F780918F00846052
:100B300080938F000895089584EC86BF80E590E04F
:100B400006B607FC09C00197D9F780918F0088602D
:100B500080938F0080E0089583B1089584E886BF74
:100B600080E590E006B607FC09C00197D9F78091AF
:100B70008F00806180938F0080E0089583B1089595
:100B8000A098A19887E886B980EE87B90895369A2B
:100B90003699FECF87E99AE30197F1F700C000008C
:100BA00085B10895389A369A3699FECF87E99AE347
:100BB0000197F1F700C00000389885B108950F93B0
:100BC0001F93CF93DF9300D000D01F92CDB7DEB735
:100BD00000E910E0F801108211821282138214825F
:100BE000158219821A821B821C821D82C09A80E0A3
:100BF000A2DA20E030E048E452E475D569837A83D4
:100C00008B839C8369817A818B819C8138D66D83AB
:100C10008D81F801808380E056DC20E030E048ECF4
:100C200052E4C5D569837A838B839C8369817A81F9
:100C30008B819C8120E030E844E554E453D51FD6F5
:100C4000F801618380E032DB69837A838B839C8344
:100C500069817A818B819C8112D6F801628397DF4A
:100C6000F80183839FDFF80184838EE5858346E066
:100C7000B80180E041D3C0980F900F900F900F9073
:100C80000F90DF91CF911F910F910895F89482B545
:100C9000886082BD89B7806889BF85B58F6085BD52
:100CA0008FE183BD78940895FBD210D385B78F78F8
:100CB000806385BF85B7806885BF0895E12C00E01B
:100CC00020E040E050E060E070E48CE690E005D287
:100CD00080E0A5DE55DFDADFB89AC09A2FEF80E713
:100CE00092E0215080409040E1F700C00000C098A1
:100CF000EFEF20E782E0E15020408040E1F700C0C4
:100D000000001092900010929100109292001092A8
:100D100093001092940010929500809160008431AD
:100D200020F04DDF1092600001C0BEDF2091620014
:100D300030916300409164005091650060916600BD
:100D40007091670080916800909169002F3731455C
:100D5000414051056105710581059105F1F2E8F207
:100D600028E088E190E00FB6F894A89581BD0FBE09
:100D700021BD1092620010926300109264001092E4
:100D80006500109266001092670010926800109241
:100D90006900EFCF1F920F920FB60F9211242F937D
:100DA0003F934F935F936F937F938F939F93AF93F3
:100DB000809160008F5F809360002091620030918D
:100DC00063004091640050916500609166007091ED
:100DD00067008091680090916900A1E056D420934B
:100DE0006200309363004093640050936500609309
:100DF0006600709367008093680090936900AF91DC
:100E00009F918F917F916F915F914F913F912F9122
:100E10000F900FBE0F901F90189598E087FF02C0AB
:100E2000C39A01C0C398880FC59AB4998160C598C8
:100E30009150A1F70895CF93C82F611102C080E0AF
:100E400001C080E8892B611101C0CFEFC598C3981C
:100E5000C298E3DF8C2FE1DFC398C598C29ACF9187
:100E6000089561E080E198E2E6CF0F931F93CF935E
:100E7000DF93EC01062FC298611102C080E001C02F
:100E800080E8CBDF002311F0888101C08FEFC5DF40
:100E9000011101C0888388818F3110F08EE1888331
:100EA00011E08881811788F0002329F0FE01E10F0D
:100EB000F11D808101C08FEFB0DF011104C0FE0180
:100EC000E10FF11D80831F5FECCFC29A80E0DF91BC
:100ED000CF911F910F9108951F93CF93DF936115C9
:100EE00021EE720781059105A1F0611522EC7207D0
:100EF00021E08207910549F0611576498105910548
:100F000041F0C1EED2E012E007C0CEEAD7E018E02F
:100F100003C0C3ECD5E011E08D2F992761E09B5F02
:100F20008ADFCE01992761E09A5F85DF61E08DE07D
:100F300093E081DF61E085E094E07DDF812F90E048
:100F400061E080689961DF91CF911F9174CF6E321B
:100F500028F0693728F493ED960F03C090E001C0A4
:100F60009FE040E1849F90011124336161E0A90179
:100F7000492BCA0160CF91E08E3E0CF490E021E055
:100F80008E300CF020E0929F202D112492E1980FDA
:100F9000929F902D1124833114F480E001C08FE1E1
:100FA000890F90E061E08068916145CF50E0440F87
:100FB000551F4061576320E2629FB0011124462B08
:100FC000572B20E8829FC001112461E0842B952BD0
:100FD00032CF90E061E099632ECF90E061E09A63B8
:100FE0002ACF0F931F93CF93DF93EC010097D1F09B
:100FF000B5D5182F893008F018E028E0129FC001FD
:10100000112461E08858914D16DF115D0FE2011740
:10101000C9F0FE01849190E061E0902B0CDF0F5F3E
:101020002196F5CF61E088E89EE205DF61E08DE280
:101030009FE201DF61E084ED90E3DF91CF911F91AA
:101040000F91F9CEDF91CF911F910F910895CF931A
:10105000DF9361E08CE091E0EEDEC0E0D0E060E0A4
:101060008FEF97E2E8DE87FD05C02196C83A81E65A
:10107000D807A9F7C0E0D0E060E08FEF97E2DBDEB1
:1010800085FD05C02196C83A81E6D807A9F7DF910A
:10109000CF910895CF93DF9361E080E191E0CBDEC3
:1010A000C0E0D0E060E08FEF97E2C5DE87FD05C0CD
:1010B0002196C83A81E6D807A9F7C0E0D0E060E001
:1010C0008FEF97E2B8DE86FD05C02196C83A81E62B
:1010D000D807A9F7DF91CF9108958F929F92AF9291
:1010E000BF92CF92DF92EF920F93CF934B015C01AF
:1010F0006A01C22F222311F082E001C081E08093B7
:101100009600C29AC49ABC98BB9ABD9ABA9A8FE0CC
:1011100097E20197F1F700C00000A3DE61E080E0F4
:1011200092E089DE60E875E280E090E0D5DE64E67A
:1011300081E00DDF8DE01FDF8A2D90E061E0995F97
:101140007ADE892D90E061E0985F75DE882D90E071
:1011500061E0975F70DE4C2F61E081E027DF802F38
:1011600038DF8E2D3ADF61E080E89CE364DE61E0E9
:1011700082E19DE360DE61E080E09CE25CDE61E0B4
:1011800083E09DE258DEC6012CDF61E080E098E15B
:1011900052DE61E08DE298E54EDE61E080E39FE69D
:1011A0004ADE61E08CED99E246DE61E08DE29EE18F
:1011B00042DE91E8891696E9990698E9A906B104F4
:1011C00008F440C061E08DE093E035DE61E085E049
:1011D00094E031DE61E082E095E02DDE61E081E4C3
:1011E00096E029DE61E08FE093E125DE61E082E5B3
:1011F00099E121DE61E080E092E01DDE61E082E0C5
:1012000095E019DE61E081E496E015DE61E08FE0B3
:1012100093E111DE61E082E599E10DDE61E085E9AF
:101220009CE309DE61E088E898E105DE61E08BE19E
:1012300098E501DE61E080E39FE6FDDD61E084E0AA
:1012400091E0F9DDA12CB12C60E08FEF9EE1F3DDA0
:1012500084FD08C08FEFA81AB80A98EAA91691E68B
:10126000B90691F761E080E89AE0E5DDA12CB12CA8
:1012700060E080E09AE0DFDD86FD08C08FEFA81A0D
:10128000B80A98EAA91691E6B90691F7CF910F919D
:10129000EF90DF90CF90BF90AF909F908F90FACE5D
:1012A000CF93DF9361E084E091E0C5DDC0E0D0E062
:1012B00060E08FEF97E2BFDD87FD05C02196C83A59
:1012C00081E6D807A9F7DF91CF910895CF93DF93F7
:1012D00061E080E091E0AFDDC0E0D0E060E08FEF62
:1012E00097E2A9DD87FD05C02196C83A81E6D807B7
:1012F000A9F7DF91CF910895EF92FF920F931F937B
:10130000CF93DF93CDB7DEB76F970FB6F894DEBFFC
:101310000FBECDBF082F7B01142F411107C0FB0169
:1013200001900020E9F731971E2F161BB9DF99DDD8
:101330001E3108F01DE180919600982F910F99833E
:101340000A833E2D41E050E04C0F5D1F480F511DB8
:10135000CA01D7012A2F231B211728F42D91FC0144
:101360002193CF01F7CF61E0CE0101967EDD6FDEE4
:10137000E12CF12C60E08FEF98E25DDD83FD08C089
:10138000FFEFEF1AFF0A48EAE41641E6F40691F788
:1013900081DE80E06F960FB6F894DEBF0FBECDBF42
:1013A000DF91CF911F910F91FF90EF900895DB0196
:1013B0008F939F930BD0BF91AF91A29F800D911DF2
:1013C000A39F900DB29F900D112408957FD1A59FEA
:1013D000900DB49F900DA49F800D911D1124089530
:1013E000B7FFF4CFF3DF821B930B0895DF93CF9306
:1013F0001F930F939A9DF02D219FF00D8B9DF00D63
:101400008A9DE02DF10D039FF00D029FE00DF11D6F
:101410004E9DE00DF11D5E9DF00D4F9DF00D7F93F3
:101420006F93BF92AF925F934F93D5014FD18B01D2
:10143000AC01D7014BD1EB01E80FF91FD6011FD04A
:101440002F913F91D60142D1C60FD71FE81FF91F38
:10145000AF91BF9114D02F913F9138D1C60FD71FB4
:10146000E81FF91FD60132D1E60FF71F9801BE0120
:10147000CF0111240F911F91CF91DF91089526D1B3
:10148000460F571FC81FD91F08F431960895689456
:1014900001C0E894F92FF12B0AF027C0A0E0B0E0DA
:1014A000E3E5FAE081C0092E05941AF467D0112310
:1014B00092F4F0E80F26FFEFE094F0940095109579
:1014C000B094C094D094A194BF0ACF0ADF0AEF0A67
:1014D000FF0A0F0B1F0B13D007FC50D0CDB7DEB7A0
:1014E000ECE07EC0689401C0E8948F929F92CF9305
:1014F000DF9305D0DF91CF919F908F90089588243E
:101500009924F401E401B0E41B2ED4019D158E044E
:101510009F04E007F10738F4FC014B01CA01B9014F
:10152000AD019E011694220F331F441F551F661FE5
:10153000771F881F991F881C991CEE1FFF1FCC1F47
:10154000DD1FAA1FBB1F8A149B04EC05FD05CE05F9
:10155000DF05A007B10748F08A189B08EC09FD09D0
:10156000CE09DF09A00BB10B21601A94E1F62EF42D
:101570009401AF01BE01CD01000C089560957095F6
:101580008095909530954095509521953F4F4F4FC0
:101590005F4F6F4F7F4F8F4F9F4F08952F923F9216
:1015A0004F925F926F927F928F929F92AF92BF9273
:1015B000CF92DF92EF92FF920F931F93CF93DF931F
:1015C000CDB7DEB7CA1BDB0B0FB6F894DEBF0FBE7C
:1015D000CDBF09942A88398848885F846E847D84C9
:1015E0008C849B84AA84B984C884DF80EE80FD80CB
:1015F0000C811B81AA81B981CE0FD11D0FB6F89441
:10160000DEBF0FBECDBFED0108950F93083090F0FF
:10161000982F872F762F652F542F432F322F222775
:101620000850F4CF220F331F441F551F661F771F2A
:10163000881F991F0A95B2F70F91089597FB10F82C
:10164000169400080F93083098F00850232F342F79
:10165000452F562F672F782F892F902DF4CF059483
:1016600097958795779567955795479537952795DA
:101670000A95AAF70F9108952A0D3B1D4C1D5D1D7B
:101680006E1D7F1D801F911F08950024A7FD0094EB
:101690002A0F301D401D501D601D701D801D901DA6
:1016A00008952A193B094C095D096E097F09800BD1
:1016B000910B08950024A7FD00942A1730054005DA
:1016C000500560057005800590050895A29FB00142
:1016D000B39FC001A39F01D0B29F700D811D112443
:1016E000911D08955058BB27AA270ED09AC18BD1BF
:1016F00030F090D120F031F49F3F11F41EF470C10E
:101700000EF4E095E7FB66C1E92F9CD180F3BA1790
:10171000620773078407950718F071F49EF5B4C14A
:101720000EF4E0950B2EBA2FA02D0B01B9019001FC
:101730000C01CA01A0011124FF27591B99F0593F40
:1017400050F4503E68F11A16F040A22F232F342F88
:101750004427585FF3CF469537952795A795F040D6
:101760005395C9F77EF41F16BA0B620B730B840BEB
:10177000BAF09150A1F0FF0FBB1F661F771F881FA3
:10178000C2F70EC0BA0F621F731F841F48F48795FB
:1017900077956795B795F7959E3F08F0B3CF9395EA
:1017A000880F08F09927EE0F9795879508950CD02C
:1017B00038C130D140F027D130F021F45F3F19F02B
:1017C00009C1511162C10CC13DD198F39923C9F3EC
:1017D0005523B1F3951B550BBB27AA276217730737
:1017E000840738F09F5F5F4F220F331F441FAA1FEB
:1017F000A9F333D00E2E3AF0E0E830D091505040AB
:10180000E695001CCAF729D0FE2F27D0660F771F58
:10181000881FBB1F261737074807AB07B0E809F03A
:10182000BB0B802DBF01FF2793585F4F2AF09E3FCF
:10183000510568F0CFC029C15F3FECF3983EDCF35F
:10184000869577956795B795F7959F5FC9F7880F48
:10185000911D9695879597F90895E1E0660F771F9A
:10186000881FBB1F621773078407BA0720F0621B2B
:10187000730B840BBA0BEE1F88F7E0950895EAD03E
:1018800088F09F5790F0B92F9927B751A0F0D1F069
:10189000660F771F881F991F1AF0BA95C9F712C0F3
:1018A000B13081F0F1D0B1E00895EEC0672F782F0C
:1018B0008827B85F39F0B93FCCF38695779567955F
:1018C000B395D9F73EF490958095709561957F4FCB
:1018D0008F4F9F4F089597FB0EF485D03EC0E8943C
:1018E00009C097FB3EF490958095709561957F4F68
:1018F0008F4F9F4F9923A9F0F92F96E9BB27939516
:10190000F695879577956795B795F111F8CFFAF425
:10191000BB0F11F460FF1BC06F5F7F4F8F4F9F4F56
:1019200016C0882311F096E911C0772321F09EE8B4
:10193000872F762F05C0662371F096E8862F70E01A
:1019400060E02AF09A95660F771F881FDAF7880FF4
:101950009695879597F90895E894F92F96EBFF23CC
:1019600081F0121613061406440B9395F69587958D
:101970007795679557954040FF23B9F71BC0992786
:101980000895882351F49850D2F7872B762F652F2E
:10199000542F432F322F20E0B1F3121613061406F2
:1019A000440B88233AF09A95440F551F661F771F02
:1019B000881FCAF755234AF4440F551F11F460FFDE
:1019C00004C06F5F7F4F8F4F9F4F880F969587950D
:1019D00097F9089597F99F6780E870E060E00895AF
:1019E0009FEF80EC08959095809570956095509547
:1019F0004095309521953F4F4F4F5F4F6F4F7F4F31
:101A00008F4F9F4F089500240A9416161706180644
:101A10000906089500240A941216130614060506F2
:101A20000895092E0394000C11F4882352F0BB0F83
:101A300040F4BF2B11F460FF04C06F5F7F4F8F4FE6
:101A40009F4F089557FD9058440F551F59F05F3F21
:101A500071F04795880F97FB991F61F09F3F79F0D0
:101A600087950895121613061406551FF2CF469552
:101A7000F1DF08C0161617061806991FF1CF8695D4
:101A80007105610508940895E894BB2766277727B8
:101A9000CB0197F908950BD0C4CFB5DF28F0BADF9A
:101AA00018F0952309F096CF9BCF1124EECFCADF13
:101AB000A0F3959FD1F3950F50E0551F629FF00161
:101AC000729FBB27F00DB11D639FAA27F00DB11DBA
:101AD000AA1F649F6627B00DA11D661F829F222743
:101AE000B00DA11D621F739FB00DA11D621F839FCA
:101AF000A00D611D221F749F3327A00D611D231FA0
:101B0000849F600D211D822F762F6A2F11249F57ED
:101B100050408AF0E1F088234AF0EE0FFF1FBB1F10
:101B2000661F771F881F91505040A9F79E3F5105AF
:101B300070F050CFAACF5F3FECF3983EDCF3869570
:101B400077956795B795F795E7959F5FC1F7FE2B5A
:101B5000880F911D9695879597F90895FC0105903A
:101B60000020E9F7809590958E0F9F1F0895F894B7
:021B7000FFCFA5
:021B720013005E
:00000001FF
