:100000000C94A7000C9450030C9471030C9493036C
:100010000C94C4000C94C4000C94C4000C94C40050
:100020000C94C4000C94C4000C94C4000C94C40040
:100030000C94C4000C94C4000C94C4000C94C40030
:100040000C94C4000C94C4000C94C4000C94C40020
:100050000C94C40000407A10F35A00A0724E1809A4
:100060000010A5D4E80000E87648170000E40B541F
:10007000020000CA9A3B000000E1F50500008096EE
:100080009800000040420F000000A0860100000020
:10009000102700000000E8030000000064000000DA
:1000A00000000A00000000000100000000002C76A3
:1000B000D888DC674F0823DFC1DFAE59E1B1B796BE
:1000C000E5E3E453C63AE651997696E8E6C284261B
:1000D000EB898C9B62ED407C6FFCEFBC9C9F40F2F7
:1000E000BAA56FA5F490055A2AF75C936B6CF96773
:1000F0006DC11BFCE0E40D47FEF520E6B500D0ED38
:10010000902E0300943577050080841E080000209F
:100110004E0A000000C80C333333330F986E12833D
:100120001141EF8D2114893BE65516CFFEE6DB1811
:10013000D1844B381BF77C1D901DA4BBE4242032D6
:1001400084725E228100C9F124ECA1E53D271124CF
:100150001FBECFE5D8E0DEBFCDBF10E0A0E6B0E027
:10016000E2E8FAE102C005900D92A43FB107D9F789
:1001700021E0A4EFB0E001C01D92A333B207E1F784
:100180000E943E070C943F0D0C94000011B884E2CD
:1001900080B9089594EA96BF06B607FEFDCF91B1E7
:1001A000987F983021F0903111F081E0089583B963
:1001B00084E886BF06B607FEFDCF81B1887F88310F
:1001C00011F0803491F780E0089584E986BF06B687
:1001D00004FCFDCF089583B984E886BF06B607FE08
:1001E000FDCF91B1987F81E0983209F480E00895C5
:1001F00062E080E00E94D40200C062E080E00C94E3
:10020000D702CF93C82F8091F400662311F081604C
:1002100001C08E7F8093F4008091F4008D7F8093E5
:10022000F4006091F40080E00E949D028091F4004F
:100230008F778093F4008091F4008F7B8093F4009B
:100240008091F4008F7D8093F4008091F4008F7E84
:100250008093F400C7FF05C08091F400806880930C
:10026000F400C6FF05C08091F40080648093F40020
:10027000C5FF05C08091F40080628093F400C4FF44
:1002800005C08091F40080618093F4006091F400D7
:1002900080E00E949D020E94F8008091F4008F7718
:1002A0008093F4008091F4008F7B8093F400809120
:1002B000F4008F7D8093F4008091F4008F7E809312
:1002C000F400C3FF05C08091F40080688093F400BF
:1002D000C2FF05C08091F40080648093F400C1FFE8
:1002E00005C08091F40080628093F400C0FF05C0D7
:1002F0008091F40080618093F4006091F40080E0CC
:100300000E949D020E94F8008091F4008061809319
:10031000F4008091F40080628093F4008091F400F6
:1003200080648093F4008091F40080688093F400EE
:100330006091F40080E0CF910C949D02CF93DF9305
:100340008091F4008E7F8093F4008091F4008260AD
:100350008093F4006091F40080E00E949D0262E0CE
:1003600080E00E94D40200C064E080E00E948B0222
:10037000D82F62E080E00E94D70200C062E080E0F7
:100380000E94D40200C064E080E00E948B028F7063
:10039000D295D07FC82FCD2B62E080E00E94D7029B
:1003A0008C2FDF91CF9108950E949E0187FDFCCF95
:1003B00084E090E00197F1F70C949E01CF93C82F51
:1003C0000E94D40160E08C2FCF910C940101611147
:1003D00002C0805801C080540C94DE0181E00C946E
:1003E000DE01882321F08091F400877F03C0809193
:1003F000F40088608093F4006091F40080E00C9435
:100400009D0282E00C94DE01CF93C82F0E94D4019C
:10041000CA3049F4803410F080E001C080E4805894
:10042000CF910C94DE01803119F460E080EC04C0BF
:10043000803521F460E080E80E9401010E94D4012F
:1004400061E08C2FCF910C940101CF93DF93EC01ED
:100450008991882319F00E940402FACFDF91CF918D
:1004600008951F93CF93DF93182F0E94820210925A
:10047000F4006091F40080E00E949D0280E09DE71E
:100480000197F1F78091F40080628093F4008091ED
:10049000F40080618093F4006091F40080E00E9499
:1004A0009D020E94F80080E097E20197F1F70E9418
:1004B000F800C0E8D0E0CE010197F1F70E94F80003
:1004C000CE010197F1F78091F4008F7E8093F400C4
:1004D0006091F40080E00E949D020E94F800219744
:1004E000F1F788E20E94DE0188E00E94DE010E94AE
:1004F000EE0186E00E94DE01812FDF91CF911F91F6
:100500000C94DE010E94C6008AE18A95F1F700C0D2
:1005100010922E01089581110EC0683060F4809110
:100520002E01082E000C990B02C0959587956A95AF
:10053000E2F7817008958FEF0895CF9381110DC078
:10054000C62F60932E018EE40E94CA008C2F0E9459
:10055000EB000E94E50080E001C08FEFCF9108958D
:10056000CF93DF9381111CC06830D0F480912E01AD
:10057000C1E0D0E001C0CC0F6A95EAF7442311F046
:10058000C82B02C0C095C823C0932E018EE40E94E0
:10059000CA008C2F0E94EB000E94E50080E001C0A1
:1005A0008FEFDF91CF91089541E00C94B00240E0CD
:1005B0000C94B002D098D198D298D398D598D59869
:1005C0003E9A3F9A87E886B90895A29AA39AA49A78
:1005D000A59AA69AA79AAA9AAB9AAC9AAD9AAE9AFD
:1005E000AF9A08958C9A8D9A949895980895389812
:1005F00039983A983B983C98369A3699FECF389875
:1006000039983A983B983C9884B195B10895389AB6
:10061000369A3699FECF389884B195B10895399AB3
:10062000369A3699FECF399884B195B10895389AA3
:10063000399A369A3699FECF3898399884B195B15F
:100640000895399A3A9A369A3699FECF39983A9857
:1006500084B195B10895389A3A9A369A3699FECF70
:1006600038983A9884B195B108958A988B98BA9839
:10067000F894929A939AC29A8BB780648BBF8BB787
:1006800080688BBF8BB780628BBF85B7826085BF68
:1006900085B7886085BF84B78F7B84BF78940895C1
:1006A0001F920F920FB60F9211248F939F938FE595
:1006B0009AEE0197F1F700C00000819905C0809182
:1006C0002B018F5F80932B018FE59AEE0197F1F755
:1006D00000C000009F918F910F900FBE0F901F9050
:1006E00018951F920F920FB60F9211248F939F931C
:1006F0008FE59AEE0197F1F700C0000080B3837098
:1007000029F480912A018F5F80932A018FE59AEE68
:100710000197F1F700C000009F918F910F900FBEDD
:100720000F901F9018951F920F920FB60F921124E1
:100730002F938F939F932FEF84E39CE02150804071
:100740009040E1F700C00000B29906C080912D01F1
:100750008F5F80932D010DC08FE59AEE0197F1F721
:1007600000C00000B19905C0809168008F5F809340
:1007700068008FE59AEE0197F1F700C000009F91A5
:100780008F912F910F900FBE0F901F901895AA98E0
:10079000AD982FEF81EE94E0215080409040E1F73A
:1007A00000C00000AA9AAD9A2FEF81EE94E021508C
:1007B00080409040E1F700C00000AB98AE982FEF6A
:1007C00081EE94E0215080409040E1F700C00000AD
:1007D000AB9AAE9A2FEF81EE94E02150804090408A
:1007E000E1F700C00000AC98AF982FEF81EE94E0E5
:1007F000215080409040E1F700C00000AC9AAF9AD1
:100800002FEF81EE94E0215080409040E1F700C04E
:10081000000008950E940703BC0180E090E00E9460
:100820007E0926E636E646E250E40E94300A20E0E1
:1008300030E040E85AE30E94300A24E937E841E01A
:1008400050E40E94300A6093F9007093FA0080939C
:10085000FB009093FC002AE939E949E750E40E9443
:10086000810820E030E048EC52E40E94300A20E9A0
:1008700039E949E95EE30E94EA080E94520970934F
:1008800029016093280108950F931F934AE06FE2B6
:1008900071E080912801909129010E94B40A60E0E2
:1008A00080E00E94E70189E690E00E9425028FE245
:1008B00091E00E9425028EE690E00E94250287EDDD
:1008C00090E00E9425026091F9007091FA008091F9
:1008D000FB009091FC000FE211E022E043E00E9457
:1008E000930AC8010E94250282E790E00E94250237
:1008F00061E080E00E94E70184E790E00E94250229
:1009000080911D01811103C08FE790E002C083E850
:1009100090E01F910F910C9425020E94F702909392
:10092000270180932601BC0180E090E00E947E09AF
:1009300026E636E646E250E40E94300A20E030E047
:1009400040E85AE30E94300A28EB3EE145E050E4DB
:100950000E94300A20E030E040E450E40E94300A77
:1009600020E030E040EA50E40E94EA086093F5009D
:100970007093F6008093F7009093F80008958091AB
:100980006800813011F1D0F0823009F047C08091C9
:10099000F5009091F600A091F700B091F8008093D7
:1009A000600090936100A0936200B093630061E0E7
:1009B0008EE00E94E70187E890E026C061E08EE0CB
:1009C0000E94E70180E790E01FC08091F5009091C0
:1009D000F600A091F700B091F80080936400909326
:1009E0006500A0936600B093670061E08EE00E940E
:1009F000E70180E790E00E94250260E08EE00E941F
:100A0000E70187E890E008C00E94250260E08EE0E0
:100A10000E94E70180E790E00C94250210926800A4
:100A2000089580912B01813061F040F0823069F0AF
:100A3000833079F4AC9AAA9AAB9A0BC0AB98AA9A75
:100A400002C0AA98AB9AAC9A06C0AC98AA9AAB9A84
:100A500002C010922B0180912A01813061F040F098
:100A6000823069F0833079F4AF9AAD9AAE9A0BC0B8
:100A7000AE98AD9A02C0AD98AE9AAF9A0895AF986D
:100A8000AD9AAE9A089510922A01089580912B0193
:100A9000813011F4949A01C0949880912A01813098
:100AA00011F4959A089595980895869904C081E067
:100AB00080931D01089510921D0108950E940F0357
:100AC0009093250180932401BC0180E090E00E9476
:100AD0007E0926E636E646E250E40E94300A20E02F
:100AE00030E040E85AE30E94300A2AE939E947E851
:100AF00051E40E94300A20E030E0A9010E948208FF
:100B0000609311017093120180931301909314016B
:100B10000E9421039093210180932001BC0180E079
:100B200090E00E947E0926E636E646E250E40E9406
:100B3000300A20E030E040E85AE30E94300A20E02A
:100B400030E040E450E40E94300A20E030E040EC25
:100B50005FE30E94EA086093190170931A01809381
:100B60001B0190931C010E94170390932301809313
:100B70002201BC0180E090E00E947E0926E636E674
:100B800046E250E40E94300A20E030E040E85AE3B8
:100B90000E94300A2AE939E947E851E40E94300A04
:100BA00020E030E0A9010E94820860930D0170935B
:100BB0000E0180930F01909310010E942B039093DC
:100BC0001F0180931E01BC0180E090E00E947E091D
:100BD00026E636E646E250E40E94300A20E030E0A5
:100BE00040E85AE30E94300A20E030E040E450E45C
:100BF0000E94300A20E030E040EC5FE30E94EA0807
:100C0000609315017093160180931701909318015A
:100C100008952091190130911A0140911B015091C2
:100C20001C01609164007091650080916600909154
:100C300067000E94E60818161CF082E080932B01E2
:100C40002091150130911601409117015091180122
:100C500060916000709161008091620090916300EA
:100C60000E94E60818161CF082E080932A0108957D
:100C70000F931F9360E080E00E94E70189E890E015
:100C80000E9425022091190130911A0140911B0107
:100C900050911C016091110170911201809113011A
:100CA000909114010E94300A6093090170930A0127
:100CB00080930B0190930C010FE211E023E043E0DD
:100CC0000E94930AC8010E94250260E08CE00E9405
:100CD000E7018EE890E00E94250261E080E00E943A
:100CE000E70180E990E00E942502209115013091F2
:100CF0001601409117015091180160910D017091FA
:100D00000E0180910F01909110010E94300A6093B2
:100D1000050170930601809307019093080123E079
:100D200043E00E94930AC8010E94250261E08CE022
:100D30000E94E7018EE890E01F910F910C9425022C
:100D40008F929F92AF92BF92CF92DF92EF92FF92DB
:100D50000F931F9360E080E00E94E70185E990E037
:100D60000E9425028090190190901A01A0901B0109
:100D7000B0901C01A50194016091110170911201C4
:100D800080911301909114010E94EA086B017C018B
:100D90006093010170930201809303019093040119
:100DA00020E030E0A901C501B4010E94E6088823D3
:100DB00051F00FE211E021E043E0C701B6010E94CB
:100DC000930AC80102C08AE990E00E94250260E00F
:100DD0008CE00E94E7018DE990E00E94250261E02D
:100DE00080E00E94E70181EA90E00E942502809065
:100DF000150190901601A0901701B0901801A5015F
:100E0000940160910D0170910E0180910F019091FC
:100E100010010E94EA086B017C016093FD00709351
:100E2000FE008093FF009093000120E030E0A901D4
:100E3000C501B4010E94E608882351F00FE211E0D9
:100E400021E043E0C701B6010E94930AC80102C035
:100E50008AE990E00E94250261E08CE00E94E701AF
:100E60008DE990E01F910F91FF90EF90DF90CF9070
:100E7000BF90AF909F908F900C9425022FEF80E74A
:100E800092E0215080409040E1F700C000008CE0EB
:100E90000E94310280E00E94F1010E94010260E0A4
:100EA00080E00E94E70186EA90E00E94250261E06E
:100EB00080E00E94E70183EB90E00E9425020E94FF
:100EC000F2020E94DA020E94E5020E9435038E9827
:100ED00096982FEF81EE94E0215080409040E1F70A
:100EE00000C000000E94C7030E94EE010E940102A0
:100EF00060E080E00E94E70181EC90E00E94250222
:100F000061E080E00E94E7018CEC90E00E94250205
:100F10002FEF81EE94E0215080409040E1F700C037
:100F200000000E94EE010E9446050E9411050E94E9
:100F30000A0480912D0180932C010E9455050E9486
:100F40005E050E94090680912D01823009F4BBC024
:100F5000D0F5882309F440C0813009F0BAC00E945E
:100F60008D040E94BF0460E080E00E94E70184EEEF
:100F700090E00E942502609164007091650080916C
:100F80006600909167000FE211E022E044E00E94C9
:100F9000930AC8010E9425028DED90E00E9425026F
:100FA00061E080E00E94E7018CEE90E00E94250263
:100FB0006091600070916100809162009091630087
:100FC00022E044E076C0833009F480C0843009F028
:100FD00080C00E9444047FC060E080E00E94E7017E
:100FE00085ED90E00E94250260911101709112013F
:100FF00080911301909114010FE211E022E043E08F
:101000000E94930AC8010E94250260E088E00E94C5
:10101000E70182E790E00E94250260E089E00E94FB
:10102000E7018AED90E00E9425026091190170911C
:101030001A0180911B0190911C0122E043E00E9463
:10104000930AC8010E9425028DED90E00E942502BE
:1010500061E080E00E94E7018FED90E00E942502B0
:1010600060910D0170910E0180910F01909110011E
:1010700022E043E00E94930AC8010E94250261E039
:1010800088E00E94E70182E790E00E94250261E08B
:1010900089E00E94E7018AED90E00E9425026091BC
:1010A000150170911601809117019091180122E0AD
:1010B00043E00E94930AC8010E9425028DED90E052
:1010C0000E94250208C00E94380605C00E94A006A2
:1010D00002C010922D0180912801909129010B9757
:1010E00028F081E080931D0180E001C081E00E9432
:1010F000F10190912C0180912D01981709F413CFE3
:1011000010CF5058BB27AA270ED070C161D130F044
:1011100066D120F031F49F3F11F41EF456C10EF455
:10112000E095E7FB4CC1E92F72D180F3BA17620753
:1011300073078407950718F071F49EF58AC10EF4C1
:10114000E0950B2EBA2FA02D0B01B90190010C01D7
:10115000CA01A0011124FF27591B99F0593F50F4EF
:10116000503E68F11A16F040A22F232F342F442747
:10117000585FF3CF469537952795A795F04053953F
:10118000C9F77EF41F16BA0B620B730B840BBAF00F
:101190009150A1F0FF0FBB1F661F771F881FC2F77A
:1011A0000EC0BA0F621F731F841F48F4879577958E
:1011B0006795B795F7959E3F08F0B3CF9395880F45
:1011C00008F09927EE0F979587950895D4D008F4E5
:1011D00081E008950CD00AC102D140F0F9D030F07E
:1011E00021F45F3F19F0EBC0511134C1EEC00FD1B3
:1011F00098F39923C9F35523B1F3951B550BBB27DE
:10120000AA2762177307840738F09F5F5F4F220F8A
:10121000331F441FAA1FA9F333D00E2E3AF0E0E883
:1012200030D091505040E695001CCAF729D0FE2FCF
:1012300027D0660F771F881FBB1F26173707480761
:10124000AB07B0E809F0BB0B802DBF01FF27935817
:101250005F4F2AF09E3F510568F0B1C0FBC05F3F71
:10126000ECF3983EDCF3869577956795B795F795FF
:101270009F5FC9F7880F911D9695879597F90895F7
:10128000E1E0660F771F881FBB1F62177307840793
:10129000BA0720F0621B730B840BBA0BEE1F88F7A2
:1012A000E0950895BCD088F09F5790F0B92F99270A
:1012B000B751A0F0D1F0660F771F881F991F1AF061
:1012C000BA95C9F712C0B13081F0C3D0B1E008952A
:1012D000C0C0672F782F8827B85F39F0B93FCCF3AB
:1012E000869577956795B395D9F73EF49095809557
:1012F000709561957F4F8F4F9F4F0895E89409C077
:1013000097FB3EF490958095709561957F4F8F4F38
:101310009F4F9923A9F0F92F96E9BB279395F6954E
:10132000879577956795B795F111F8CFFAF4BB0FCC
:1013300011F460FF1BC06F5F7F4F8F4F9F4F16C030
:10134000882311F096E911C0772321F09EE8872FBA
:10135000762F05C0662371F096E8862F70E060E076
:101360002AF09A95660F771F881FDAF7880F9695EF
:10137000879597F90895990F0008550FAA0BE0E893
:10138000FEEF16161706E807F907C0F01216130647
:10139000E407F50798F0621B730B840B950B39F487
:1013A0000A2661F0232B242B252B21F408950A26ED
:1013B00009F4A140A6958FEF811D811D089597F92D
:1013C0009F6780E870E060E008959FEF80EC0895EB
:1013D00000240A9416161706180609060895002414
:1013E0000A9412161306140605060895092E03948E
:1013F000000C11F4882352F0BB0F40F4BF2B11F402
:1014000060FF04C06F5F7F4F8F4F9F4F089557FD60
:101410009058440F551F59F05F3F71F04795880F62
:1014200097FB991F61F09F3F79F0879508951216F9
:1014300013061406551FF2CF4695F1DF08C01616A5
:1014400017061806991FF1CF869571056105089456
:101450000895E894BB2766277727CB0197F908956D
:101460000BD0C4CFB5DF28F0BADF18F0952309F010
:10147000A6CFABCF1124EECFCADFA0F3959FD1F357
:10148000950F50E0551F629FF001729FBB27F00D32
:10149000B11D639FAA27F00DB11DAA1F649F662787
:1014A000B00DA11D661F829F2227B00DA11D621FD6
:1014B000739FB00DA11D621F839FA00D611D221F90
:1014C000749F3327A00D611D231F849F600D211D74
:1014D000822F762F6A2F11249F5750408AF0E1F017
:1014E00088234AF0EE0FFF1FBB1F661F771F881F60
:1014F00091505040A9F79E3F510570F060CFAACFA0
:101500005F3FECF3983EDCF3869577956795B7954A
:10151000F795E7959F5FC1F7FE2B880F911D969574
:10152000879597F90895EF920F931F93CF93DF93C9
:10153000E80147FF02C034E101C034E0E42FFF2797
:10154000E7FDF095F7FF03C0F195E195F109E32E72
:10155000022F2E2FAE010E94D90ACE01DF91CF912A
:101560001F910F91EF900895BB274A3031F49923D2
:1015700022F4BDE2909581959F4F0C94C00ABB2741
:10158000FB015527AA27880F991FAA1FA41710F03F
:10159000A41B83955051B9F7A05DAA3308F0A95D4B
:1015A000A193009779F7B111B1931192CB010C94EB
:1015B0002F0D6F927F929F92AF92BF92CF92DF9248
:1015C000EF92FF920F931F93CF93DF93CDB7DEB7C8
:1015D00029970FB6F894DEBF0FBECDBF6A01B22EB9
:1015E000102F0C3320F4FF24F394F00E02C04CE3D0
:1015F000F42E0F2D27E0AE014F5F5F4F0E94570C76
:101600007981272F2970213031F0E1FC06C0E0FC00
:1016100006C060E005C06DE203C06BE201C060E29D
:10162000AE2DA07173FF36C0662311F084E001C0B7
:1016300083E08B1510F4B81A01C0B12CA1110BC0B6
:10164000F6018B2D90E2882319F091938150FBCF06
:10165000CB0CD11CB12C662331F0F60160839601CE
:101660002F5F3F4F6901C6010396E2FE05C02EE4DD
:10167000F601208331E404C02EE6F601208331E632
:1016800031832283FC012B2D30E22223F1F13193AF
:101690002150FBCF72FF40C0662311F084E001C0EF
:1016A00083E08B1510F4B81A01C0B12CA1110BC046
:1016B000F6018B2D90E2882319F091938150FBCF96
:1016C000CB0CD11CB12C662331F0F601608396015E
:1016D0002F5F3F4F6901C6010396E2FE07C029E470
:1016E000F60120832EE4218326E406C029E6F601D4
:1016F00020832EE6218326E62283FC012B2D30E277
:10170000222319F031932150FBCFFC01EB0DF11D89
:1017100010828EEF9FEFB7C0B1E0611101C0B0E061
:101720004B2F50E01816190624F49C012F5F3F4FF1
:1017300002C021E030E0240F351F112329F0412F92
:1017400050E04F5F5F4F02C040E050E0420F531F38
:101750002B2D30E04217530714F4B41A01C0B12CFA
:101760002E2D287159F4F6012B2D30E2222319F089
:1017700031932150FBCFCB0CD11CB12CBB2331F0CA
:10178000F601608396012F5F3F4F6901A1110BC0E5
:10179000F6012B2D30E3222319F031932150FBCF9A
:1017A000CB0CD11CB12CF80E0A81372F3071A32E2F
:1017B00074FF03C0013309F4FA941F142CF42F2D85
:1017C000293018F028E001C021E0682F392F97FF59
:1017D00002C060E030E0462F532F612C712C3EE2B6
:1017E000932EBC01621B71099B01DC01A41BB50B8C
:1017F000E1E0F0E0EC0FFD1FAE0FBF1FE12EF12C7A
:10180000F194E194F1084F3FFFEF5F0731F4F601E7
:101810009082B6016F5F7F4F6B01841795074CF084
:101820002417350734F4BD01660D771DFB011181C6
:1018300001C010E341505109FFEF6F1A7F0AB60152
:101840006F5F7F4F4E155F0524F0F60110836B012B
:10185000DACF4817590739F4063320F4053319F461
:10186000A11001C011E3F6011083FB018B2D90E262
:10187000882319F091938150FBCFFB01EB0DF11DF3
:10188000108280E090E029960FB6F894DEBF0FBE7C
:10189000CDBFDF91CF911F910F91FF90EF90DF901F
:1018A000CF90BF90AF909F907F906F900895283019
:1018B00008F027E03327DA01990F311D87FD916089
:1018C00000966105710539F432602E5F3D9330E377
:1018D0002A95E1F708959F3F30F080387105610542
:1018E00009F03C5F3C5F3D93913008F08068911DAA
:1018F000DF93CF931F930F93FF92EF92192F987F4F
:101900009695E92F96959695E90FFF27E255FF4F9B
:1019100099273327EE24FF24A701E70105900894B7
:10192000079428F4360FE71EF81E491F511D660F55
:10193000771F881F991F0694A1F70590079428F434
:10194000E70EF81E491F561FC11D770F881F991FEC
:10195000661F0694A1F70590079428F4F80E491F16
:10196000561FC71FD11D880F991F661F771F06942A
:10197000A1F70590079420F4490F561FC71FD81FE1
:10198000990F661F771F881F0694A9F784911095F9
:10199000177041F0D695C79557954795F794E794FA
:1019A0001A95C1F7E4E5F0E068941590159135912A
:1019B0006591959105907FE27395E118F10A430BCB
:1019C000560BC90BD009C0F7E10CF11E431F561F7F
:1019D000C91FD01D7EF4703311F48A95E6CFE894C8
:1019E000015030F0080F0AF40027021708F4202FE6
:1019F0002395022F7A3328F079E37D932A95E9F72E
:101A000010C07D932A9589F606949795679537952A
:101A100017951794E118F10A430B560BC90BD0091F
:101A200098F023957E9173957A3308F070E37C9358
:101A30002013B8F77E9170617D9330F0839571E348
:101A40007D9370E32A95E1F71124EF90FF900F91B9
:101A50001F91CF91DF91992787FD90950895DC0123
:101A6000FC01672F71917723E1F7329704C07C91D5
:101A70006D9370836291AE17BF07C8F30895F89411
:021A8000FFCF96
:101A82000000003F0000003F034241543A0020257D
:101A9200200056004C61646F77616E69653A004FB1
:101AA2004E20004F4646002A00313A503D00570072
:101AB200323A503D00313A523D004E43006F686D5C
:101AC20000323A523D005572756368616D69616E0C
:101AD20069650050726F737A6520637A656B616322
:101AE200005A616B6F6E637A6F6E6F0053756B6332
:101AF2006573656D00313A553D00493D0041003244
:101B02003A553D00313A496D61783D00323A496DAE
:041B120061783D00B9
:00000001FF
