:1000000012C02CC096C3D4C329C028C027C026C0A4
:1000100025C024C023C022C021C020C01FC01EC0D4
:100020001DC01CC01BC011241FBECFE5D4E0DEBF25
:10003000CDBF13E0A0E6B0E0E8E1F5E102C0059035
:100040000D92A233B107D9F723E0A2E3B3E001C0D8
:100050001D92A836B207E1F77AD25CCAD1CF81B13E
:100060008C7F81B98AE280B908958093320386B784
:10007000846A86BF06B607FEFDCF81B1887F8830CF
:1000800021F0803111F08EEF08958FEF0895880FE1
:1000900090913203892B83B986B78F7D86BF86B74F
:1000A000806886BF06B607FEFDCF809132038111BE
:1000B00006C081B1887F883181F48FEF0895813047
:1000C00051F4E1B1E87FE853E13138F4F0E0EF5862
:1000D000FF4F8081089580E008958EEF089583B9E1
:1000E00086B7806886BF06B607FEFDCFE1B1E87F20
:1000F000E852E13128F4F0E0E05AFF4F80810895A2
:100100008EEF089586B7806986BF06B604FEFDCFE0
:100110000895861720F0481718F4842F0895862F25
:10012000089560E080E0AAD682E890E0EAD6809167
:100130004403809343038091440387FD04C089E511
:1001400093E0DFD637C08091440387FF1BC08091C6
:100150004403873FBCF060914403062E000C770BEC
:10016000880B990B72D89F773DD8609344038DE23A
:1001700092D640914403042E000C550B660B770B6E
:1001800021E016C060914403062E000C770B880B0B
:10019000990B5BD89F7726D8609344038DE27BD67A
:1001A00040914403042E000C550B660B770B22E0A4
:1001B0008AE0B2D68AE890E0A4D680914303809387
:1001C000440360E081E05AD68FE890E09AD68091AF
:1001D000410390914203409141035091420360E0FA
:1001E00070E0883E934010F024E001C023E08AE0F4
:1001F00093D68BE990E085D660E082E03FD681EA35
:1002000090E07FD68AE493E07CD68EEA90E079D6BF
:1002100060E083E033D682EB90E073D686E593E02E
:1002200070D68EEA90E06DC660E080E027D68BEB5A
:1002300090E067D68DE493E064D68EEA90E061D6D4
:1002400080913603813029F460E018D68BEC90E081
:1002500002C08DED90E055D660E082E00FD680EFD1
:1002600090E04FD68DE593E04CD68EEA90E049D6EB
:1002700080913503813031F460E083E0FFD581E087
:1002800091E002C08DED90E03CC6A09887E886B969
:1002900080EE87B90895CF93DF931F92CDB7DEB775
:1002A0001982369A3699FECF85B189838FE097E21D
:1002B0000197F1F700C0000089810F90DF91CF9185
:1002C000089580E593E032D5809155038E35F1F5A0
:1002D0008091500380934403809144038253809320
:1002E00044038091510390E0909342038093410333
:1002F00080914103909142038E5A9C4F9093420308
:100300008093410380915203809340038091440382
:100310004AE069E573E0082E000C990BC8D880917B
:100320004103909142034AE060E673E0C0D88091B7
:1003300040034AE06AE473E090E0B9D88091530347
:100340008093470380915403809345030895F89464
:1003500082B5886082BD89B7806889BF85B58F60A6
:1003600085BD8FE183BD78940895CF93DF9300D04E
:1003700000D0CDB7DEB719821A821B821C82609131
:10038000470370E080E090E060D72FE135E84BE272
:1003900050E4E7D720E030E040E85BE3E2D79B01A0
:1003A000AC0154D623E333E343E35FE34FD66983E1
:1003B0007A838B839C8369817A818B819C8120E005
:1003C00030E040E450E441D620E030E048EC52E434
:1003D000C8D72CE33AE047E95FE39CD620E030E061
:1003E000A90134D604D7609347038091470344E6BC
:1003F00060E08FDE80934703809147034AE06DE41D
:1004000073E090E054D8809147038B3020F481E072
:100410008093360302C0109236036091450370E06A
:1004200080E090E012D72AE037ED43E250E499D71C
:1004300020E030E040E85BE394D769837A838B83E4
:100440009C8369817A818B819C8120E030E048EC3B
:1004500052E487D726EF38E24CEB5FE35BD620E02F
:1004600030E0A901F3D5C3D66093450380914503DD
:1004700044E660E04EDE80934503809145034AE008
:1004800066E573E090E013D806DF80934603609141
:10049000460370E080E090E0D8D62AE037ED43E2F2
:1004A00050E45FD720E030E040E85BE35AD79B019F
:1004B000AC01CCD52AE939E949E95EE3C7D56983BE
:1004C0007A838B839C8369817A818B819C8120E0F4
:1004D00030E040E450E4B9D520E030E048EC52E4AC
:1004E00040D72CE33AE047E95FE314D620E030E060
:1004F000A901ACD57CD6609346038091460344E6BF
:1005000060E007DE80934603809146034AE06DE594
:1005100073E090E0CCD7809146038B3020F481E0EB
:100520008093350302C0109235030F900F900F9007
:100530000F90DF91CF9108959398939AF89485B78F
:10054000877F85BF8BB780688BBF78940895B89AF2
:10055000C09A2FE788E391E0215080409040E1F776
:1005600000C00000E12C00E020E040E050E060E04E
:1005700070E48CE690E097D233D408D486DEDCDFDA
:10058000E6DE109250031092510310925203109223
:100590005303109254031092550310923703E5DE73
:1005A000C098EFE728E381E0E15020408040E1F788
:1005B00000C0000060E080E061D49FE7EFE422E14A
:1005C0009150E0402040E1F700C00000DFD3C1E0DF
:1005D00078DE809155038E3511F5C09AC6DE1092F3
:1005E0005503C0933403C0933303C0933703CED372
:1005F000109238031092390310923A0310923B0381
:1006000010923C0310923D0310923E0310923F0360
:100610008FE097E20197F1F700C00000C098809149
:100620003303811105C060E029D484E191E069D4ED
:10063000209138033091390340913A0350913B03A4
:1006400060913C0370913D0380913E0390913F0384
:10065000ABE318D739F130F199D360E080E00ED4E4
:100660008AE291E04ED460E081E008D48BE391E02F
:1006700048D460E082E002D488E491E042D49FEF65
:10068000E8E02DE39150E0402040E1F700C0000099
:100690007DD398E088E10FB6F894A89581BD0FBE90
:1006A00091BDFFCF80913703813011F43ADD0DC049
:1006B00080913703823011F4B7DD07C08091370392
:1006C000833019F463D3C0933703209138033091FA
:1006D000390340913A0350913B0360913C03709180
:1006E0003D0380913E0390913F032F3731454140B8
:1006F0005105610571058105910509F008F468CF80
:1007000098E088E10FB6F894A89581BD0FBE91BD21
:10071000109238031092390310923A0310923B035F
:1007200010923C0310923D0310923E0310923F033F
:10073000EFCF1F920F920FB60F9211242F933F937A
:100740004F935F936F937F938F939F93AF93BF93D9
:10075000EF93FF93C09A1AD32FEB84ED91E02150D1
:1007600080409040E1F700C0000080B3837029F41E
:10077000809137038F5F809337032FE788E391E001
:10078000215080409040E1F700C00000C098FF91E8
:10079000EF91BF91AF919F918F917F916F915F91F9
:1007A0004F913F912F910F900FBE0F901F90189572
:1007B0001F920F920FB60F9211242F933F934F93D6
:1007C0005F936F937F938F939F93AF9320913803A1
:1007D0003091390340913A0350913B0360913C03BF
:1007E00070913D0380913E0390913F03A1E03ED67E
:1007F000209338033093390340933A0350933B03DB
:1008000060933C0370933D0380933E0390933F03BA
:10081000AF919F918F917F916F915F914F913F9198
:100820002F910F900FBE0F901F90189598E087FFA3
:1008300002C0C39A01C0C398880FC59AB499816059
:10084000C5989150A1F70895CF93C82F611102C0A8
:1008500080E001C080E8892B611101C0CFEFC5980D
:10086000C398C298E3DF8C2FE1DFC398C598C29A82
:10087000CF91089561E080E198E2E6CF0F931F9356
:10088000CF93DF93EC01062FC298611102C080E084
:1008900001C080E8CBDF002311F0888101C08FEF19
:1008A000C5DF011101C0888388818F3110F08EE18E
:1008B000888311E08881811788F0002329F0FE01E8
:1008C000E10FF11D808101C08FEFB0DF011104C085
:1008D000FE01E10FF11D80831F5FECCFC29A80E023
:1008E000DF91CF911F910F9108951F93CF93DF93C5
:1008F000611521EE720781059105A1F0611522ECC9
:10090000720721E08207910549F06115764981055A
:10091000910541F0C1EED2E012E007C0CEEAD7E087
:1009200018E003C0C3ECD5E011E08D2F992761E0FA
:100930009B5F8ADFCE01992761E09A5F85DF61E0E6
:100940008DE093E081DF61E085E094E07DDF812F41
:1009500090E061E080689961DF91CF911F9174CF41
:100960006E3228F0693728F493ED960F03C090E0BB
:1009700001C09FE040E1849F90011124336161E058
:10098000A901492BCA0160CF91E08E3E0CF490E0A2
:1009900021E08E300CF020E0929F202D112492E176
:1009A000980F929F902D1124833114F480E001C0A0
:1009B0008FE1890F90E061E08068916145CF50E060
:1009C000440F551F4061576320E2629FB00111241C
:1009D000462B572B20E8829FC001112461E0842B15
:1009E000952B32CF90E061E099632ECF90E061E0EB
:1009F0009A632ACF0F931F93CF93DF93EC01009755
:100A0000D1F04CD5182F893008F018E028E0129F5B
:100A1000C001112461E08858914D16DF115D0FE28D
:100A20000117C9F0FE01849190E061E0902B0CDF8A
:100A30000F5F2196F5CF61E088E89EE205DF61E077
:100A40008DE29FE201DF61E084ED90E3DF91CF91E1
:100A50001F910F91F9CEDF91CF911F910F910895C2
:100A6000CF93DF9361E080E191E0EEDEC0E0D0E083
:100A700060E08FEF97E2E8DE87FD05C02196CA3679
:100A800088E1D807A9F7C0E0D0E060E08FEF97E2F7
:100A9000DBDE86FD05C02196CA3688E1D807A9F7B6
:100AA000DF91CF9108958F929F92AF92BF92CF9294
:100AB000DF92EF920F93CF934B015C016A01C22F3B
:100AC000222311F082E001C081E080936403C29A86
:100AD000C49ABC98BB9ABD9ABA9A83EC99E00197E4
:100AE000F1F700C00000C6DE61E080E092E0ACDE1D
:100AF00060E875E280E090E0F8DE64E681E030DFF7
:100B00008DE042DF8A2D90E061E0995F9DDE892DC6
:100B100090E061E0985F98DE882D90E061E0975F5B
:100B200093DE4C2F61E081E04ADF802F5BDF8E2D6A
:100B30005DDF61E080E89CE387DE61E082E19DE3C8
:100B400083DE61E080E09CE27FDE61E083E09DE2A5
:100B50007BDEC6014FDF61E080E098E175DE61E099
:100B60008DE298E571DE61E080E39FE66DDE61E095
:100B70008CED99E269DE61E08DE29EE165DE91E84F
:100B8000891696E9990698E9A906B10408F440C0C7
:100B900061E08DE093E058DE61E085E094E054DEB2
:100BA00061E082E095E050DE61E081E496E04CDEB9
:100BB00061E08FE093E148DE61E082E599E144DEA7
:100BC00061E080E092E040DE61E082E095E03CDEC2
:100BD00061E081E496E038DE61E08FE093E134DEAD
:100BE00061E082E599E130DE61E085E99CE32CDE9D
:100BF00061E088E898E128DE61E08BE198E524DE99
:100C000061E080E39FE620DE61E084E091E01CDEAD
:100C1000A12CB12C60E08FEF9EE116DE84FD08C0B0
:100C20008FEFA81AB80A9AE6A91698E1B90691F7C3
:100C300061E080E89AE008DEA12CB12C60E080E061
:100C40009AE002DE86FD08C08FEFA81AB80A9AE67D
:100C5000A91698E1B90691F7CF910F91EF90DF9027
:100C6000CF90BF90AF909F908F90FACECF93DF93AD
:100C700061E084E091E0E8DDC0E0D0E060E08FEF8B
:100C800097E2E2DD87FD05C02196CA3688E1D807E4
:100C9000A9F7DF91CF910895EF92FF921F93CF9321
:100CA000DF93CDB7DEB76F970FB6F894DEBF0FBEF8
:100CB000CDBF7C01DBDF60E0CE010196DFDD198175
:100CC0001E3108F01DE1D70180E090E0811770F43B
:100CD00020916403E1E0F0E0EC0FFD1FE80FF91F45
:100CE000E20FF11D20812D930196F0CFF701E10F66
:100CF000F11D1082BFDDB4DE80916403181B812FCB
:100D00006F960FB6F894DEBF0FBECDBFDF91CF91C7
:100D10001F91FF90EF900895C29860E08FEF98E2E6
:100D200093DDC29A82FB882780F90895CF93DF93E1
:100D3000EC0180916503882379F0CE01ADDFE0916D
:100D40004803F0914903309721F0682FCE010995AF
:100D500001C090DD10926503DFDF882319F081E088
:100D600080936503DF91CF910895CF93C82F80E0E2
:100D70007CD98C2FCF918BC9CF93C82F8CE3F5DF13
:100D800080E0ADD98C2FABD9CF91BCC9CF93DF9385
:100D900081E2F2DF80E0F0DF8FE7EEDF82E2ECDF7E
:100DA00080E0EADF87E0E8DF8CE3DFDF80E497D9EB
:100DB000C0E0D4E080E093D92197E1F781E2DCDF65
:100DC00080E0DADF8FE7D8DF82E2D6DF80E0D4DFB1
:100DD00087E0D2DF8CE3C9DF80E4DF91CF917FC968
:100DE0003ED98EEAC9DF85EDC7DF80E8C5DF88EA36
:100DF000C3DF8FE1C1DF83EDBFDF80E0BDDF80E4D3
:100E0000BBDF8DE8B9DF84E1B7DF80E2B5DF80E0EA
:100E1000B3DF81EAB1DF88ECAFDF8AEDADDF82E0DE
:100E2000ABDF81E8A9DF8FECA7DF89EDA5DF81EFDC
:100E3000A3DF8BEDA1DF80E49FDF84EA9DDF86EAFC
:100E40009BDF8FEA99DFA2CFCF93DF93C82FD62FF6
:100E5000809366036093670381E28EDF8D2F8CDFC2
:100E60008FE78ADF82E288DF8C2F86DF87E084DFEE
:100E70008CE37BDF80E4DF91CF9131C9883010F4BF
:100E800067FFE2CF0895809166038F5F877080933C
:100E9000660360E0F3CF0F931F93CF93DF93C82FC8
:100EA0008091670390E08B37910554F4CA3041F08C
:100EB000C05285E0C89FE001112400E010E004C0AA
:100EC000E2DFCA30A9F718C0F801EC0FFD1FEA5A9B
:100ED000FE4F808104D9809167038F5F8093670301
:100EE0000F5F1F4F0530110579F780E0F8D880912A
:100EF00067038F5F80936703DF91CF911F910F91FD
:100F00000895CF93DF93EC018991882311F0C3DF1B
:100F1000FBCFDF91CF9108954F925F926F927F92B6
:100F20008F929F92AF92BF92CF92DF92EF92FF92F9
:100F30000F931F93CF93DF93CDB7DEB72A970FB6EA
:100F4000F894DEBF0FBECDBF982E6A017B01122F31
:100F500082E0981220C0AA24A394B12C112309F492
:100F60005DC08FEF810FA50102C0440F551F8A9508
:100F7000E2F7052E000C660B770B4C215D216E21EC
:100F80007F2181E0452B462B472B09F480E0805DD3
:100F900082DF1150E3CF452B462B472B11F400E0A5
:100FA0003BC0FE0131965F0100E0492C512C612CC1
:100FB000712C101739F1C114D104E104F10471F05E
:100FC0008C2CC701B601A30192012ED269017A01CE
:100FD000929E80181124F501808204C0153038F4E7
:100FE000F50110820F5FFFEFAF1ABF0AE2CF102F9B
:100FF00009C0FE01E10FF11D80818A3030F0895C6B
:101000004ADF11501111F5CF09C0805DF9CF0430CE
:1010100029F080E340DF0F5F0113F9CF2A960FB666
:10102000F894DEBF0FBECDBFDF91CF911F910F911E
:10103000FF90EF90DF90CF90BF90AF909F908F90F8
:101040007F906F905F904F9008955058BB27AA27CC
:101050000ED04DC13ED130F043D120F031F49F3F4E
:1010600011F41EF433C10EF4E095E7FB29C1E92F1A
:101070004FD180F3BA17620773078407950718F0FA
:1010800071F49EF567C10EF4E0950B2EBA2FA02DDA
:101090000B01B90190010C01CA01A0011124FF2725
:1010A000591B99F0593F50F4503E68F11A16F04020
:1010B000A22F232F342F4427585FF3CF469537951F
:1010C0002795A795F0405395C9F77EF41F16BA0BE4
:1010D000620B730B840BBAF09150A1F0FF0FBB1F92
:1010E000661F771F881FC2F70EC0BA0F621F731FDB
:1010F000841F48F4879577956795B795F7959E3F38
:1011000008F0B3CF9395880F08F09927EE0F9795C5
:10111000879508950CD0EBC0E3D040F0DAD030F0E2
:1011200021F45F3F19F0CCC0511115C1CFC0F0D0F0
:1011300098F39923C9F35523B1F3951B550BBB279E
:10114000AA2762177307840738F09F5F5F4F220F4B
:10115000331F441FAA1FA9F333D00E2E3AF0E0E844
:1011600030D091505040E695001CCAF729D0FE2F90
:1011700027D0660F771F881FBB1F26173707480722
:10118000AB07B0E809F0BB0B802DBF01FF279358D8
:101190005F4F2AF09E3F510568F092C0DCC05F3F70
:1011A000ECF3983EDCF3869577956795B795F795C0
:1011B0009F5FC9F7880F911D9695879597F90895B8
:1011C000E1E0660F771F881FBB1F62177307840754
:1011D000BA0720F0621B730B840BBA0BEE1F88F763
:1011E000E095089504D06894B111B5C0089598D0E1
:1011F00088F09F5790F0B92F9927B751A0F0D1F000
:10120000660F771F881F991F1AF0BA95C9F712C089
:10121000B13081F09FD0B1E008959CC0672F782F46
:101220008827B85F39F0B93FCCF3869577956795F5
:10123000B395D9F73EF490958095709561957F4F61
:101240008F4F9F4F0895E89409C097FB3EF4909507
:101250008095709561957F4F8F4F9F4F9923A9F08F
:10126000F92F96E9BB279395F6958795779567951E
:10127000B795F111F8CFFAF4BB0F11F460FF1BC062
:101280006F5F7F4F8F4F9F4F16C0882311F096E9F5
:1012900011C0772321F09EE8872F762F05C06623A3
:1012A00071F096E8862F70E060E02AF09A95660F5C
:1012B000771F881FDAF7880F9695879597F9089515
:1012C00097F99F6780E870E060E008959FEF80ECF9
:1012D000089500240A94161617061806090608959C
:1012E00000240A9412161306140605060895092E02
:1012F0000394000C11F4882352F0BB0F40F4BF2B71
:1013000011F460FF04C06F5F7F4F8F4F9F4F0895B0
:1013100057FD9058440F551F59F05F3F71F04795A6
:10132000880F97FB991F61F09F3F79F0879508958B
:10133000121613061406551FF2CF4695F1DF08C0AA
:10134000161617061806991FF1CF869571056105C7
:1013500008940895E894BB2766277727CB0197F96F
:1013600008950BD0C4CFB5DF28F0BADF18F095236D
:1013700009F0A6CFABCF1124EECFCADFA0F3959F23
:10138000D1F3950F50E0551F629FF001729FBB276C
:10139000F00DB11D639FAA27F00DB11DAA1F649F18
:1013A0006627B00DA11D661F829F2227B00DA11DCB
:1013B000621F739FB00DA11D621F839FA00D611D51
:1013C000221F749F3327A00D611D231F849F600D72
:1013D000211D822F762F6A2F11249F5750408AF0AB
:1013E000E1F088234AF0EE0FFF1FBB1F661F771F37
:1013F000881F91505040A9F79E3F510570F060CF73
:10140000AACF5F3FECF3983EDCF38695779567951E
:10141000B795F795E7959F5FC1F7FE2B880F911D54
:101420009695879597F90895A1E21A2EAA1BBB1BE2
:10143000FD010DC0AA1FBB1FEE1FFF1FA217B307A0
:10144000E407F50720F0A21BB30BE40BF50B661FB6
:10145000771F881F991F1A9469F76095709580957A
:1014600090959B01AC01BD01CF0108950024A7FD1B
:1014700000942A0F301D401D501D601D701D801DE1
:10148000901D08950024A7FD00942A1730054005FB
:10149000500560057005800590050895FC010590D4
:1014A0000020E9F7809590958E0F9F1F0895BB2728
:1014B0004A3031F4992322F4BDE2909581959F4FF3
:1014C00001C0BB27FB015527AA27880F991FAA1F18
:1014D000A41710F0A41B83955051B9F7A05DAA334F
:1014E00008F0A95DA193009779F7B111B19311921A
:1014F000CB0100C0DC01FC01672F71917723E1F77C
:10150000329704C07C916D9370836291AE17BF07D0
:08151000C8F30895F894FFCF21
:10151800FFFEFEFEFEFEFEFEFEFEFEFEFEFEFEFEE2
:10152800FEFEFEFEFEFEFEFEFEFFFEFEFEFEFEFED2
:10153800FEFE54656D702E3A2000207E4320004345
:1015480069736E69656E69653A200020685061208C
:101558000057696C676F746E6F73633A20002025BB
:101568002000536C6F6E63653A20004261742E6EE2
:101578006164616A6E696B613A20004E616C6164F6
:10158800756A206E6164616A6E696B200020202094
:101598002020202020202020202020202020200063
:1015A8004261742E6F6462696F726E696B613A2072
:1015B800004E616C6164756A206F6462696F726E57
:1015C800696B20004F435A454B4957414E494520C6
:1015D8004E41205359474E414C0055525543484FB0
:1015E8004D204E4144414A4E494B004252414B2006
:1015F8005359474E414C55004E4153544150492090
:10160800524553455400000000000000002F000020
:101618000007000700147F147F14242A7F2A12234E
:101628001308646236495522500005030000001C67
:101638002241000041221C0014083E081408083EFC
:1016480008080000A060000808080808006060009A
:101658000020100804023E5149453E00427F4000E8
:1016680042615149462141454B311814127F1027D8
:10167800454545393C4A4949300171090503364910
:10168800494936064949291E0036360000005636B3
:1016980000000814224100141414141400412214E8
:1016A800080201510906324959513E7C1211127C37
:1016B8007F494949363E414141227F4141221C7FB1
:1016C800494949417F090909013E4149497A7F0849
:1016D80008087F00417F41002040413F017F0814F6
:1016E80022417F404040407F020C027F7F04081067
:1016F8007F3E4141413E7F090909063E4151215E35
:101708007F09192946464949493101017F01013FAD
:101718004040403F1F2040201F3F4038403F631457
:1017280008146307087008076151494543007F4161
:10173800410055AA55AA550041417F000402010203
:1017480004404040404000030500002054545478B1
:101758007F484444383844444420384444487F3817
:1017680054545418087E09010218A4A4A47C7F08C4
:1017780004047800447D40004080847D007F102868
:10178800440000417F40007C041804787C0804046D
:10179800783844444438FC2424241818242418FC99
:1017A8007C080404084854545420043F4440203C16
:1017B8004040207C1C2040201C3C4030403C4428B9
:1017C8001028441CA0A0A07C4464544C4400107C05
:1017D80082000000FF000000827C1000000609095A
:0217E8000600F9
:00000001FF
