:1000000009C021C020C01FC01EC01DC01CC01BC015
:100010001AC019C011241FBECFE9CDBF10E0A0E661
:10002000B0E0E4E3F3E002C005900D92A236B10720
:10003000D9F720E0A2E6B0E001C01D92A836B207D1
:10004000E1F71FD075C1DCCF369A3699FECF85B166
:1000500090E090936500809364000895BC98399A6D
:100060003D9A86B1836886B9379A0895B89A83B75E
:10007000826083BF8FB589608FBD8FB580688FBD6B
:1000800008952FEF8BE49DE1215080409040E1F7EF
:1000900000C00000EBDFE2DFBA9ABB9AC29AC39AB3
:1000A000B998C19AC1E0D0E002E010E085EAC82E1C
:1000B000D12CE12CF12CB19905C010936300009371
:1000C000620004C0D0936300C0936200BDDF8091E2
:1000D0006400909165000B9718F4C39AC29A60C0AF
:1000E00080916400909165008B3E910534F48634D4
:1000F00091052CF486E490E002C08BEE90E09093A2
:100100006500809364008091620090916300029783
:10011000F1F4C29AC3986091640070916500CB01BC
:10012000A0E0B0E0BC01CD016654710981099109DC
:1001300022E03FEF4FEF5FEFA4D0A7019601BAD0C6
:10014000DA01C90181509F4FAF4FBF4F22C080914C
:10015000620090916300019709F5C39AC29860917B
:10016000640070916500CB01A0E0B0E0BC01CD015E
:1001700066547109810991092EEF30E040E050E0AA
:1001800080D0A701960196D0DA01C9010196A11D80
:10019000B11D909367008093660006C0C29AC39A0F
:1001A00010926700109266002091660030916700FF
:1001B00080916000909161008217930728F58091EB
:1001C0006000909161002091600030916100809109
:1001D0006600909167008217930708F449C08091E8
:1001E00060009091610086BF8FE599E00197F1F77B
:1001F00000C0000080916000909161000196909392
:10020000610080936000DFCF209160003091610039
:1002100080916600909167008217930720F5809186
:10022000660090916700209160003091610080919C
:1002300066009091670082179307D0F0809160006C
:100240009091610086BF8FE599E00197F1F700C0BA
:10025000000080916600909167000197909367007D
:1002600080936600E0CF809166009091670086BF22
:100270008091660090916700909361008093600088
:100280001ACFEE27FF27AA27BB2708C0A20FB31F4C
:10029000E41FF51F220F331F441F551F96958795A6
:1002A0007795679598F37040A9F7009799F7BD0186
:1002B000CF010895052E97FB16F400940FD057FD3B
:1002C00005D014D007FC02D046F408C050954095E4
:1002D000309521953F4F4F4F5F4F089590958095F2
:1002E000709561957F4F8F4F9F4F0895A1E21A2E11
:1002F000AA1BBB1BFD010DC0AA1FBB1FEE1FFF1FCA
:10030000A217B307E407F50720F0A21BB30BE40B19
:10031000F50B661F771F881F991F1A9469F7609560
:100320007095809590959B01AC01BD01CF0108951A
:04033000F894FFCF6F
:020334000100C6
:00000001FF
