:1000000009C016C015C014C013C012C011C010C062
:100010000FC00EC011241FBECFE9CDBF20E0A0E667
:10002000B0E001C01D92A436B207E1F79FD026C10F
:10003000E7CFBB9887B1836087B93D9A86B187685F
:1000400086B90895369A3699FECF85B10895B89A43
:10005000B99A83B7826083BF8FB589608FBD8FB532
:1000600080688FBD8FB580628FBD0895B29B02C03E
:10007000B4990AC0B29B02C0B49B08C0B29908C030
:10008000B49B06C082E0089580E0089581E0089561
:1000900083E00895861720F0481718F4842F0895F8
:1000A000862F0895809160008E3198F080916000D5
:1000B0008C3378F4109263008091600090E04E974A
:1000C00060E570E0A3D062E370E0B1D060936200BD
:1000D0000895809160008C3390F0809160008A35A3
:1000E00070F48091600090E08A55910966E470E0B8
:1000F0008DD066EF7FEF9BD0609363000AC0809144
:1001000060008A3520F084E18093630002C0109281
:1001100063001092620008958FE5809363008093DE
:1001200062000895809160008F3098F080916000A7
:100130008C3378F4109263008091600090E00F9708
:1001400064E670E063D06DE270E071D060936200AD
:100150000895809160008C3320F084E680936300E2
:1001600002C01092630010926200089562DF6FDF98
:10017000BA98BC98C29AC49A08EC10E0C7EAD0E0DA
:1001800061DF809360008091600090E0449764E6B6
:1001900070E03CD0B8014BD060936000809160006B
:1001A00044E660E077DF8093600060DF8093610069
:1001B00080916100813039F020F0823031F4B2DF7B
:1001C0000AC070DF08C0A8DF06C01092610010925C
:1001D0006300109262008091630090E063E470E03D
:1001E00015D0BE0124D0609363008091620090E03E
:1001F0006CE870E00BD0BE011AD060936200809171
:10020000630086BF8091620089BDBACF0024552764
:1002100004C0080E591F880F991F009729F0769582
:100220006795B8F37105B9F7802D952F089597FB61
:10023000072E16F4009406D077FD08D00BD007FCEB
:1002400005D03EF4909581959F4F089570956195E6
:100250007F4F0895AA1BBB1B51E107C0AA1FBB1FFC
:10026000A617B70710F0A61BB70B881F991F5A9542
:10027000A9F780959095BC01CD010895F894FFCF22
:00000001FF
