:1000000018C025C024C023C022C021C020C01FC0EA
:100010001EC01DC032313A31363A35300032352EED
:1000200030372E323032340036383000312E302E18
:10003000300011241FBECFE9CDBF20E0A0E6B0E024
:1000400001C01D92A536B207E1F728D06AC0D8CF0B
:10005000BC98399A3E9A3D9A86B1816886B9A49A2D
:100060000895369A8FEB9DE50197F1F700C00000E7
:100070003699FECF8FEB9DE50197F1F700C00000A8
:1000800085B190E00895B89A83B7816083BF8FB53A
:1000900083608FBD8FB580688FBD0895D9DFF3DF92
:1000A00084E686BFC1E0DDDF90936200809361004B
:1000B0008091610090916200843E910540F520910D
:1000C0006100309162008091630090916400293D4D
:1000D000310510F4019608C0209161003091620052
:1000E0002A3D310528F001979093640080936300C6
:1000F0008091630090916400833B910510F082EB46
:1001000090E0909364008093630086BF02C0C09328
:10011000600080916000813031F616BE1092600060
:06012000C2CFF894FFCFEE
:00000001FF
