:1000000018C025C024C023C022C021C020C01FC0EA
:100010001EC01DC032313A31343A30320032352EF2
:1000200030372E323032340036333300312E302E1A
:10003000300011241FBECFE9CDBF20E0A0E6B0E024
:1000400001C01D92A637B207E1F71CD0BBC1D8CFC3
:10005000BC98399A3E9A3D9A86B1816886B9A49A2D
:100060000895369A3699FECF85B190E00895B89AF2
:1000700083B7816083BF8FB583608FBD8FB5806884
:100080008FBD0895E5DFF3DF24E630E041E050E086
:1000900062E070E08CE091E02ED0E3DF90936100AD
:1000A000809360008091600090916100813D910596
:1000B00000F5609160007091610044E650E088ECCA
:1000C00090E044D09093630080936200809162003E
:1000D000909163008A39910510F089E990E090933E
:1000E000630080936200809162009091630086BFFC
:1000F000D4CF16BED2CFCF93DF93FB01E9011A8292
:100100001B821C821D82198218829F838E837987AD
:1001100068875B874A87BC016F5F7F4F8FEF9FE7E0
:1001200000D17D876C879F012F5F3F4F032E000C0E
:10013000440B550B6FEF7FEF8FEF9FE305D12E87B9
:100140003F87488B598BDF91CF9108958F929F9273
:10015000AF92BF92EF92FF920F931F93CF93DF93D3
:100160007B01EA019C01261B370B8C859D8582173C
:10017000930764F0919581959109281739074CF000
:100180006E817F81C9018FD08C0105C00FEF1FE701
:1001900002C001E010E8C901330FAA0BBB0B4A8172
:1001A0005B816C817D819A01AB01280F391F4A1F49
:1001B0005B1F8E859F85A889B98982179307A4073D
:1001C000B5075CF48A839B83AC83BD8388248A94BF
:1001D000982CA82C9FE3B92E24C0B095A09590959B
:1001E00081959F4FAF4FBF4F281739074A075B07CD
:1001F0005CF48A839B83AC83BD8388248394912C95
:10020000A12C80ECB82E0DC02A833B834C835D83E8
:1002100068857985072E000C880B990B55D04B010A
:100220005C01888199816A857B858E199F093BD005
:10023000F982E882012E000C220B330B800E911EF6
:10024000A21EB31E092E000CAA0BBB0BBC01CD01D4
:10025000680D791D8A1D9B1D20E830E040E050E0CC
:1002600073D0213080E838078FEF4807580724F40F
:1002700021E030E84FEF5FEFDA01C901811520E896
:100280009207A105B10524F08FEF9FE7A0E0B0E051
:10029000DF91CF911F910F91FF90EF90BF90AF90A2
:1002A0009F908F9008950024552704C0080E591F71
:1002B000880F991F009729F076956795B8F3710517
:1002C000B9F7802D952F0895EE27FF27AA27BB2782
:1002D00008C0A20FB31FE41FF51F220F331F441FD6
:1002E000551F969587957795679598F37040A9F770
:1002F000009799F7BD01CF010895AA1BBB1B51E1DF
:1003000007C0AA1FBB1FA617B70710F0A61BB70B85
:10031000881F991F5A95A9F780959095BC01CD012A
:10032000089597FB072E16F4009406D077FD08D0A9
:10033000E4DF07FC05D03EF4909581959F4F08952A
:10034000709561957F4F0895052E97FB16F40094E4
:100350000FD057FD05D014D007FC02D046F408C0DA
:1003600050954095309521953F4F4F4F5F4F0895E1
:1003700090958095709561957F4F8F4F9F4F089511
:10038000A1E21A2EAA1BBB1BFD010DC0AA1FBB1F99
:10039000EE1FFF1FA217B307E407F50720F0A21B0B
:1003A000B30BE40BF50B661F771F881F991F1A9478
:1003B00069F760957095809590959B01AC01BD01A2
:0803C000CF010895F894FFCF6E
:00000001FF
